{
  "_format": "hh-sol-artifact-1",
  "contractName": "Wall",
  "sourceName": "contracts/InfinityWall.sol",
  "abi": [
    {
      "inputs": [
        {
          "internalType": "uint256",
          "name": "_minDonate",
          "type": "uint256"
        },
        {
          "internalType": "string",
          "name": "_name",
          "type": "string"
        },
        {
          "internalType": "address",
          "name": "_newOwner",
          "type": "address"
        }
      ],
      "stateMutability": "nonpayable",
      "type": "constructor"
    },
    {
      "anonymous": false,
      "inputs": [
        {
          "indexed": true,
          "internalType": "address",
          "name": "previousOwner",
          "type": "address"
        },
        {
          "indexed": true,
          "internalType": "address",
          "name": "newOwner",
          "type": "address"
        }
      ],
      "name": "OwnershipTransferred",
      "type": "event"
    },
    {
      "anonymous": false,
      "inputs": [
        {
          "indexed": false,
          "internalType": "uint64",
          "name": "_id",
          "type": "uint64"
        },
        {
          "indexed": false,
          "internalType": "string",
          "name": "_message",
          "type": "string"
        },
        {
          "indexed": false,
          "internalType": "address",
          "name": "_sender",
          "type": "address"
        }
      ],
      "name": "messageSended",
      "type": "event"
    },
    {
      "stateMutability": "payable",
      "type": "fallback"
    },
    {
      "inputs": [
        {
          "internalType": "uint256",
          "name": "",
          "type": "uint256"
        }
      ],
      "name": "messages",
      "outputs": [
        {
          "internalType": "address",
          "name": "sender",
          "type": "address"
        },
        {
          "internalType": "string",
          "name": "message",
          "type": "string"
        },
        {
          "internalType": "uint64",
          "name": "id",
          "type": "uint64"
        }
      ],
      "stateMutability": "view",
      "type": "function"
    },
    {
      "inputs": [],
      "name": "minDonate",
      "outputs": [
        {
          "internalType": "uint256",
          "name": "",
          "type": "uint256"
        }
      ],
      "stateMutability": "view",
      "type": "function"
    },
    {
      "inputs": [],
      "name": "name",
      "outputs": [
        {
          "internalType": "string",
          "name": "",
          "type": "string"
        }
      ],
      "stateMutability": "view",
      "type": "function"
    },
    {
      "inputs": [],
      "name": "owner",
      "outputs": [
        {
          "internalType": "address",
          "name": "",
          "type": "address"
        }
      ],
      "stateMutability": "view",
      "type": "function"
    },
    {
      "inputs": [],
      "name": "renounceOwnership",
      "outputs": [],
      "stateMutability": "nonpayable",
      "type": "function"
    },
    {
      "inputs": [
        {
          "internalType": "string",
          "name": "_text",
          "type": "string"
        }
      ],
      "name": "setMessage",
      "outputs": [],
      "stateMutability": "payable",
      "type": "function"
    },
    {
      "inputs": [
        {
          "internalType": "uint256",
          "name": "_newValue",
          "type": "uint256"
        }
      ],
      "name": "setMinDonate",
      "outputs": [],
      "stateMutability": "nonpayable",
      "type": "function"
    },
    {
      "inputs": [
        {
          "internalType": "address",
          "name": "newOwner",
          "type": "address"
        }
      ],
      "name": "transferOwnership",
      "outputs": [],
      "stateMutability": "nonpayable",
      "type": "function"
    },
    {
      "inputs": [],
      "name": "withdraw",
      "outputs": [],
      "stateMutability": "nonpayable",
      "type": "function"
    },
    {
      "stateMutability": "payable",
      "type": "receive"
    }
  ],
  "bytecode": "0x608060405273f39fd6e51aad88f6f4ce6ab8827279cfffb92266600160006101000a81548173ffffffffffffffffffffffffffffffffffffffff021916908373ffffffffffffffffffffffffffffffffffffffff1602179055503480156200006657600080fd5b5060405162001b5a38038062001b5a83398181016040528101906200008c91906200052e565b620000ac620000a0620000df60201b60201c565b620000e760201b60201c565b826002819055508160039081620000c49190620007ea565b50620000d681620001ab60201b60201c565b505050620009ec565b600033905090565b60008060009054906101000a900473ffffffffffffffffffffffffffffffffffffffff169050816000806101000a81548173ffffffffffffffffffffffffffffffffffffffff021916908373ffffffffffffffffffffffffffffffffffffffff1602179055508173ffffffffffffffffffffffffffffffffffffffff168173ffffffffffffffffffffffffffffffffffffffff167f8be0079c531659141344cd1fd0a4f28419497f9722a3daafe3b4186f6b6457e060405160405180910390a35050565b620001bb6200024160201b60201c565b600073ffffffffffffffffffffffffffffffffffffffff168173ffffffffffffffffffffffffffffffffffffffff16036200022d576040517f08c379a0000000000000000000000000000000000000000000000000000000008152600401620002249062000958565b60405180910390fd5b6200023e81620000e760201b60201c565b50565b62000251620000df60201b60201c565b73ffffffffffffffffffffffffffffffffffffffff1662000277620002d260201b60201c565b73ffffffffffffffffffffffffffffffffffffffff1614620002d0576040517f08c379a0000000000000000000000000000000000000000000000000000000008152600401620002c790620009ca565b60405180910390fd5b565b60008060009054906101000a900473ffffffffffffffffffffffffffffffffffffffff16905090565b6000604051905090565b600080fd5b600080fd5b6000819050919050565b62000324816200030f565b81146200033057600080fd5b50565b600081519050620003448162000319565b92915050565b600080fd5b600080fd5b6000601f19601f8301169050919050565b7f4e487b7100000000000000000000000000000000000000000000000000000000600052604160045260246000fd5b6200039f8262000354565b810181811067ffffffffffffffff82111715620003c157620003c062000365565b5b80604052505050565b6000620003d6620002fb565b9050620003e4828262000394565b919050565b600067ffffffffffffffff82111562000407576200040662000365565b5b620004128262000354565b9050602081019050919050565b60005b838110156200043f57808201518184015260208101905062000422565b60008484015250505050565b6000620004626200045c84620003e9565b620003ca565b9050828152602081018484840111156200048157620004806200034f565b5b6200048e8482856200041f565b509392505050565b600082601f830112620004ae57620004ad6200034a565b5b8151620004c08482602086016200044b565b91505092915050565b600073ffffffffffffffffffffffffffffffffffffffff82169050919050565b6000620004f682620004c9565b9050919050565b6200050881620004e9565b81146200051457600080fd5b50565b6000815190506200052881620004fd565b92915050565b6000806000606084860312156200054a576200054962000305565b5b60006200055a8682870162000333565b935050602084015167ffffffffffffffff8111156200057e576200057d6200030a565b5b6200058c8682870162000496565b92505060406200059f8682870162000517565b9150509250925092565b600081519050919050565b7f4e487b7100000000000000000000000000000000000000000000000000000000600052602260045260246000fd5b60006002820490506001821680620005fc57607f821691505b602082108103620006125762000611620005b4565b5b50919050565b60008190508160005260206000209050919050565b60006020601f8301049050919050565b600082821b905092915050565b6000600883026200067c7fffffffffffffffffffffffffffffffffffffffffffffffffffffffffffffffff826200063d565b6200068886836200063d565b95508019841693508086168417925050509392505050565b6000819050919050565b6000620006cb620006c5620006bf846200030f565b620006a0565b6200030f565b9050919050565b6000819050919050565b620006e783620006aa565b620006ff620006f682620006d2565b8484546200064a565b825550505050565b600090565b6200071662000707565b62000723818484620006dc565b505050565b5b818110156200074b576200073f6000826200070c565b60018101905062000729565b5050565b601f8211156200079a57620007648162000618565b6200076f846200062d565b810160208510156200077f578190505b620007976200078e856200062d565b83018262000728565b50505b505050565b600082821c905092915050565b6000620007bf600019846008026200079f565b1980831691505092915050565b6000620007da8383620007ac565b9150826002028217905092915050565b620007f582620005a9565b67ffffffffffffffff81111562000811576200081062000365565b5b6200081d8254620005e3565b6200082a8282856200074f565b600060209050601f8311600181146200086257600084156200084d578287015190505b620008598582620007cc565b865550620008c9565b601f198416620008728662000618565b60005b828110156200089c5784890151825560018201915060208501945060208101905062000875565b86831015620008bc5784890151620008b8601f891682620007ac565b8355505b6001600288020188555050505b505050505050565b600082825260208201905092915050565b7f4f776e61626c653a206e6577206f776e657220697320746865207a65726f206160008201527f6464726573730000000000000000000000000000000000000000000000000000602082015250565b600062000940602683620008d1565b91506200094d82620008e2565b604082019050919050565b60006020820190508181036000830152620009738162000931565b9050919050565b7f4f776e61626c653a2063616c6c6572206973206e6f7420746865206f776e6572600082015250565b6000620009b2602083620008d1565b9150620009bf826200097a565b602082019050919050565b60006020820190508181036000830152620009e581620009a3565b9050919050565b61115e80620009fc6000396000f3fe60806040526004361061008a5760003560e01c8063715018a611610059578063715018a6146101305780638da5cb5b14610147578063c81b726c14610172578063c9215b1e1461019b578063f2fde38b146101c657610091565b806306fdde03146100935780630d80fefd146100be578063368b8772146100fd5780633ccfd60b1461011957610091565b3661009157005b005b34801561009f57600080fd5b506100a86101ef565b6040516100b5919061087a565b60405180910390f35b3480156100ca57600080fd5b506100e560048036038101906100e091906108e6565b61027d565b6040516100f493929190610977565b60405180910390f35b61011760048036038101906101129190610aea565b610373565b005b34801561012557600080fd5b5061012e6104f6565b005b34801561013c57600080fd5b506101456105c8565b005b34801561015357600080fd5b5061015c6105dc565b6040516101699190610b33565b60405180910390f35b34801561017e57600080fd5b50610199600480360381019061019491906108e6565b610605565b005b3480156101a757600080fd5b506101b0610617565b6040516101bd9190610b5d565b60405180910390f35b3480156101d257600080fd5b506101ed60048036038101906101e89190610ba4565b61061d565b005b600380546101fc90610c00565b80601f016020809104026020016040519081016040528092919081815260200182805461022890610c00565b80156102755780601f1061024a57610100808354040283529160200191610275565b820191906000526020600020905b81548152906001019060200180831161025857829003601f168201915b505050505081565b6004818154811061028d57600080fd5b90600052602060002090600302016000915090508060000160009054906101000a900473ffffffffffffffffffffffffffffffffffffffff16908060010180546102d690610c00565b80601f016020809104026020016040519081016040528092919081815260200182805461030290610c00565b801561034f5780601f106103245761010080835404028352916020019161034f565b820191906000526020600020905b81548152906001019060200180831161033257829003601f168201915b5050505050908060020160009054906101000a900467ffffffffffffffff16905083565b600254348111156103b9576040517f08c379a00000000000000000000000000000000000000000000000000000000081526004016103b090610c7d565b60405180910390fd5b600460405180606001604052803373ffffffffffffffffffffffffffffffffffffffff16815260200184815260200160048054905067ffffffffffffffff16815250908060018154018082558091505060019003906000526020600020906003020160009091909190915060008201518160000160006101000a81548173ffffffffffffffffffffffffffffffffffffffff021916908373ffffffffffffffffffffffffffffffffffffffff16021790555060208201518160010190816104809190610e49565b5060408201518160020160006101000a81548167ffffffffffffffff021916908367ffffffffffffffff16021790555050507ff64c316b89ab8c190d27fea2b42b91a852a3a222a362e73b7e24df001bcaed9160048054905083336040516104ea93929190610f1b565b60405180910390a15050565b6104fe6106a0565b3373ffffffffffffffffffffffffffffffffffffffff166108fc60646063476105279190610f88565b6105319190610ff9565b9081150290604051600060405180830381858888f1935050505015801561055c573d6000803e3d6000fd5b50600160009054906101000a900473ffffffffffffffffffffffffffffffffffffffff1673ffffffffffffffffffffffffffffffffffffffff166108fc479081150290604051600060405180830381858888f193505050501580156105c5573d6000803e3d6000fd5b50565b6105d06106a0565b6105da600061071e565b565b60008060009054906101000a900473ffffffffffffffffffffffffffffffffffffffff16905090565b61060d6106a0565b8060028190555050565b60025481565b6106256106a0565b600073ffffffffffffffffffffffffffffffffffffffff168173ffffffffffffffffffffffffffffffffffffffff1603610694576040517f08c379a000000000000000000000000000000000000000000000000000000000815260040161068b9061109c565b60405180910390fd5b61069d8161071e565b50565b6106a86107e2565b73ffffffffffffffffffffffffffffffffffffffff166106c66105dc565b73ffffffffffffffffffffffffffffffffffffffff161461071c576040517f08c379a000000000000000000000000000000000000000000000000000000000815260040161071390611108565b60405180910390fd5b565b60008060009054906101000a900473ffffffffffffffffffffffffffffffffffffffff169050816000806101000a81548173ffffffffffffffffffffffffffffffffffffffff021916908373ffffffffffffffffffffffffffffffffffffffff1602179055508173ffffffffffffffffffffffffffffffffffffffff168173ffffffffffffffffffffffffffffffffffffffff167f8be0079c531659141344cd1fd0a4f28419497f9722a3daafe3b4186f6b6457e060405160405180910390a35050565b600033905090565b600081519050919050565b600082825260208201905092915050565b60005b83811015610824578082015181840152602081019050610809565b60008484015250505050565b6000601f19601f8301169050919050565b600061084c826107ea565b61085681856107f5565b9350610866818560208601610806565b61086f81610830565b840191505092915050565b600060208201905081810360008301526108948184610841565b905092915050565b6000604051905090565b600080fd5b600080fd5b6000819050919050565b6108c3816108b0565b81146108ce57600080fd5b50565b6000813590506108e0816108ba565b92915050565b6000602082840312156108fc576108fb6108a6565b5b600061090a848285016108d1565b91505092915050565b600073ffffffffffffffffffffffffffffffffffffffff82169050919050565b600061093e82610913565b9050919050565b61094e81610933565b82525050565b600067ffffffffffffffff82169050919050565b61097181610954565b82525050565b600060608201905061098c6000830186610945565b818103602083015261099e8185610841565b90506109ad6040830184610968565b949350505050565b600080fd5b600080fd5b7f4e487b7100000000000000000000000000000000000000000000000000000000600052604160045260246000fd5b6109f782610830565b810181811067ffffffffffffffff82111715610a1657610a156109bf565b5b80604052505050565b6000610a2961089c565b9050610a3582826109ee565b919050565b600067ffffffffffffffff821115610a5557610a546109bf565b5b610a5e82610830565b9050602081019050919050565b82818337600083830152505050565b6000610a8d610a8884610a3a565b610a1f565b905082815260208101848484011115610aa957610aa86109ba565b5b610ab4848285610a6b565b509392505050565b600082601f830112610ad157610ad06109b5565b5b8135610ae1848260208601610a7a565b91505092915050565b600060208284031215610b0057610aff6108a6565b5b600082013567ffffffffffffffff811115610b1e57610b1d6108ab565b5b610b2a84828501610abc565b91505092915050565b6000602082019050610b486000830184610945565b92915050565b610b57816108b0565b82525050565b6000602082019050610b726000830184610b4e565b92915050565b610b8181610933565b8114610b8c57600080fd5b50565b600081359050610b9e81610b78565b92915050565b600060208284031215610bba57610bb96108a6565b5b6000610bc884828501610b8f565b91505092915050565b7f4e487b7100000000000000000000000000000000000000000000000000000000600052602260045260246000fd5b60006002820490506001821680610c1857607f821691505b602082108103610c2b57610c2a610bd1565b5b50919050565b7f4e6f7420656e6f756768742076616c7565000000000000000000000000000000600082015250565b6000610c676011836107f5565b9150610c7282610c31565b602082019050919050565b60006020820190508181036000830152610c9681610c5a565b9050919050565b60008190508160005260206000209050919050565b60006020601f8301049050919050565b600082821b905092915050565b600060088302610cff7fffffffffffffffffffffffffffffffffffffffffffffffffffffffffffffffff82610cc2565b610d098683610cc2565b95508019841693508086168417925050509392505050565b6000819050919050565b6000610d46610d41610d3c846108b0565b610d21565b6108b0565b9050919050565b6000819050919050565b610d6083610d2b565b610d74610d6c82610d4d565b848454610ccf565b825550505050565b600090565b610d89610d7c565b610d94818484610d57565b505050565b5b81811015610db857610dad600082610d81565b600181019050610d9a565b5050565b601f821115610dfd57610dce81610c9d565b610dd784610cb2565b81016020851015610de6578190505b610dfa610df285610cb2565b830182610d99565b50505b505050565b600082821c905092915050565b6000610e2060001984600802610e02565b1980831691505092915050565b6000610e398383610e0f565b9150826002028217905092915050565b610e52826107ea565b67ffffffffffffffff811115610e6b57610e6a6109bf565b5b610e758254610c00565b610e80828285610dbc565b600060209050601f831160018114610eb35760008415610ea1578287015190505b610eab8582610e2d565b865550610f13565b601f198416610ec186610c9d565b60005b82811015610ee957848901518255600182019150602085019450602081019050610ec4565b86831015610f065784890151610f02601f891682610e0f565b8355505b6001600288020188555050505b505050505050565b6000606082019050610f306000830186610968565b8181036020830152610f428185610841565b9050610f516040830184610945565b949350505050565b7f4e487b7100000000000000000000000000000000000000000000000000000000600052601160045260246000fd5b6000610f93826108b0565b9150610f9e836108b0565b9250828202610fac816108b0565b91508282048414831517610fc357610fc2610f59565b5b5092915050565b7f4e487b7100000000000000000000000000000000000000000000000000000000600052601260045260246000fd5b6000611004826108b0565b915061100f836108b0565b92508261101f5761101e610fca565b5b828204905092915050565b7f4f776e61626c653a206e6577206f776e657220697320746865207a65726f206160008201527f6464726573730000000000000000000000000000000000000000000000000000602082015250565b60006110866026836107f5565b91506110918261102a565b604082019050919050565b600060208201905081810360008301526110b581611079565b9050919050565b7f4f776e61626c653a2063616c6c6572206973206e6f7420746865206f776e6572600082015250565b60006110f26020836107f5565b91506110fd826110bc565b602082019050919050565b60006020820190508181036000830152611121816110e5565b905091905056fea2646970667358221220eb217611818da217de5d2fe079c0bad48b038139217a163250f7263dcd940a7264736f6c63430008110033",
  "linkReferences": {},
  "deployedLinkReferences": {}
}