{
  "_format": "hh-sol-artifact-1",
  "contractName": "WallFactory",
  "sourceName": "contracts/InfinityWall.sol",
  "abi": [
    {
      "anonymous": false,
      "inputs": [
        {
          "indexed": false,
          "internalType": "address",
          "name": "_address",
          "type": "address"
        },
        {
          "indexed": false,
          "internalType": "address",
          "name": "_owner",
          "type": "address"
        }
      ],
      "name": "wallCreated",
      "type": "event"
    },
    {
      "inputs": [
        {
          "internalType": "uint256",
          "name": "_minDonate",
          "type": "uint256"
        },
        {
          "internalType": "string",
          "name": "_name",
          "type": "string"
        }
      ],
      "name": "createNewWall",
      "outputs": [],
      "stateMutability": "nonpayable",
      "type": "function"
    },
    {
      "inputs": [
        {
          "internalType": "uint256",
          "name": "",
          "type": "uint256"
        }
      ],
      "name": "walls",
      "outputs": [
        {
          "internalType": "address",
          "name": "",
          "type": "address"
        }
      ],
      "stateMutability": "view",
      "type": "function"
    }
  ],
  "bytecode": "0x608060405234801561001057600080fd5b50612138806100206000396000f3fe60806040523480156200001157600080fd5b50600436106200003a5760003560e01c8063550a3dba146200003f5780636b10a95f1462000075575b600080fd5b6200005d600480360381019062000057919062000216565b62000095565b6040516200006c91906200028d565b60405180910390f35b6200009360048036038101906200008d91906200040c565b620000d5565b005b60008181548110620000a657600080fd5b906000526020600020016000915054906101000a900473ffffffffffffffffffffffffffffffffffffffff1681565b6000828233604051620000e890620001b9565b620000f6939291906200050c565b604051809103906000f08015801562000113573d6000803e3d6000fd5b5090506000819080600181540180825580915050600190039060005260206000200160009091909190916101000a81548173ffffffffffffffffffffffffffffffffffffffff021916908373ffffffffffffffffffffffffffffffffffffffff1602179055507f5b651761cf8e67d671e71b681abab2a6130902470650cd4e5e25d1e561f237c68133604051620001ac92919062000550565b60405180910390a1505050565b611b85806200057e83390190565b6000604051905090565b600080fd5b600080fd5b6000819050919050565b620001f081620001db565b8114620001fc57600080fd5b50565b6000813590506200021081620001e5565b92915050565b6000602082840312156200022f576200022e620001d1565b5b60006200023f84828501620001ff565b91505092915050565b600073ffffffffffffffffffffffffffffffffffffffff82169050919050565b6000620002758262000248565b9050919050565b620002878162000268565b82525050565b6000602082019050620002a460008301846200027c565b92915050565b600080fd5b600080fd5b6000601f19601f8301169050919050565b7f4e487b7100000000000000000000000000000000000000000000000000000000600052604160045260246000fd5b620002ff82620002b4565b810181811067ffffffffffffffff82111715620003215762000320620002c5565b5b80604052505050565b600062000336620001c7565b9050620003448282620002f4565b919050565b600067ffffffffffffffff821115620003675762000366620002c5565b5b6200037282620002b4565b9050602081019050919050565b82818337600083830152505050565b6000620003a56200039f8462000349565b6200032a565b905082815260208101848484011115620003c457620003c3620002af565b5b620003d18482856200037f565b509392505050565b600082601f830112620003f157620003f0620002aa565b5b8135620004038482602086016200038e565b91505092915050565b60008060408385031215620004265762000425620001d1565b5b60006200043685828601620001ff565b925050602083013567ffffffffffffffff8111156200045a5762000459620001d6565b5b6200046885828601620003d9565b9150509250929050565b6200047d81620001db565b82525050565b600081519050919050565b600082825260208201905092915050565b60005b83811015620004bf578082015181840152602081019050620004a2565b60008484015250505050565b6000620004d88262000483565b620004e481856200048e565b9350620004f68185602086016200049f565b6200050181620002b4565b840191505092915050565b600060608201905062000523600083018662000472565b8181036020830152620005378185620004cb565b90506200054860408301846200027c565b949350505050565b60006040820190506200056760008301856200027c565b6200057660208301846200027c565b939250505056fe6080604052735b38da6a701c568545dcfcb03fcb875f56beddc4600160006101000a81548173ffffffffffffffffffffffffffffffffffffffff021916908373ffffffffffffffffffffffffffffffffffffffff1602179055503480156200006657600080fd5b5060405162001b8538038062001b8583398181016040528101906200008c91906200052e565b620000ac620000a0620000df60201b60201c565b620000e760201b60201c565b826002819055508160039081620000c49190620007ea565b50620000d681620001ab60201b60201c565b505050620009ec565b600033905090565b60008060009054906101000a900473ffffffffffffffffffffffffffffffffffffffff169050816000806101000a81548173ffffffffffffffffffffffffffffffffffffffff021916908373ffffffffffffffffffffffffffffffffffffffff1602179055508173ffffffffffffffffffffffffffffffffffffffff168173ffffffffffffffffffffffffffffffffffffffff167f8be0079c531659141344cd1fd0a4f28419497f9722a3daafe3b4186f6b6457e060405160405180910390a35050565b620001bb6200024160201b60201c565b600073ffffffffffffffffffffffffffffffffffffffff168173ffffffffffffffffffffffffffffffffffffffff16036200022d576040517f08c379a0000000000000000000000000000000000000000000000000000000008152600401620002249062000958565b60405180910390fd5b6200023e81620000e760201b60201c565b50565b62000251620000df60201b60201c565b73ffffffffffffffffffffffffffffffffffffffff1662000277620002d260201b60201c565b73ffffffffffffffffffffffffffffffffffffffff1614620002d0576040517f08c379a0000000000000000000000000000000000000000000000000000000008152600401620002c790620009ca565b60405180910390fd5b565b60008060009054906101000a900473ffffffffffffffffffffffffffffffffffffffff16905090565b6000604051905090565b600080fd5b600080fd5b6000819050919050565b62000324816200030f565b81146200033057600080fd5b50565b600081519050620003448162000319565b92915050565b600080fd5b600080fd5b6000601f19601f8301169050919050565b7f4e487b7100000000000000000000000000000000000000000000000000000000600052604160045260246000fd5b6200039f8262000354565b810181811067ffffffffffffffff82111715620003c157620003c062000365565b5b80604052505050565b6000620003d6620002fb565b9050620003e4828262000394565b919050565b600067ffffffffffffffff82111562000407576200040662000365565b5b620004128262000354565b9050602081019050919050565b60005b838110156200043f57808201518184015260208101905062000422565b60008484015250505050565b6000620004626200045c84620003e9565b620003ca565b9050828152602081018484840111156200048157620004806200034f565b5b6200048e8482856200041f565b509392505050565b600082601f830112620004ae57620004ad6200034a565b5b8151620004c08482602086016200044b565b91505092915050565b600073ffffffffffffffffffffffffffffffffffffffff82169050919050565b6000620004f682620004c9565b9050919050565b6200050881620004e9565b81146200051457600080fd5b50565b6000815190506200052881620004fd565b92915050565b6000806000606084860312156200054a576200054962000305565b5b60006200055a8682870162000333565b935050602084015167ffffffffffffffff8111156200057e576200057d6200030a565b5b6200058c8682870162000496565b92505060406200059f8682870162000517565b9150509250925092565b600081519050919050565b7f4e487b7100000000000000000000000000000000000000000000000000000000600052602260045260246000fd5b60006002820490506001821680620005fc57607f821691505b602082108103620006125762000611620005b4565b5b50919050565b60008190508160005260206000209050919050565b60006020601f8301049050919050565b600082821b905092915050565b6000600883026200067c7fffffffffffffffffffffffffffffffffffffffffffffffffffffffffffffffff826200063d565b6200068886836200063d565b95508019841693508086168417925050509392505050565b6000819050919050565b6000620006cb620006c5620006bf846200030f565b620006a0565b6200030f565b9050919050565b6000819050919050565b620006e783620006aa565b620006ff620006f682620006d2565b8484546200064a565b825550505050565b600090565b6200071662000707565b62000723818484620006dc565b505050565b5b818110156200074b576200073f6000826200070c565b60018101905062000729565b5050565b601f8211156200079a57620007648162000618565b6200076f846200062d565b810160208510156200077f578190505b620007976200078e856200062d565b83018262000728565b50505b505050565b600082821c905092915050565b6000620007bf600019846008026200079f565b1980831691505092915050565b6000620007da8383620007ac565b9150826002028217905092915050565b620007f582620005a9565b67ffffffffffffffff81111562000811576200081062000365565b5b6200081d8254620005e3565b6200082a8282856200074f565b600060209050601f8311600181146200086257600084156200084d578287015190505b620008598582620007cc565b865550620008c9565b601f198416620008728662000618565b60005b828110156200089c5784890151825560018201915060208501945060208101905062000875565b86831015620008bc5784890151620008b8601f891682620007ac565b8355505b6001600288020188555050505b505050505050565b600082825260208201905092915050565b7f4f776e61626c653a206e6577206f776e657220697320746865207a65726f206160008201527f6464726573730000000000000000000000000000000000000000000000000000602082015250565b600062000940602683620008d1565b91506200094d82620008e2565b604082019050919050565b60006020820190508181036000830152620009738162000931565b9050919050565b7f4f776e61626c653a2063616c6c6572206973206e6f7420746865206f776e6572600082015250565b6000620009b2602083620008d1565b9150620009bf826200097a565b602082019050919050565b60006020820190508181036000830152620009e581620009a3565b9050919050565b61118980620009fc6000396000f3fe60806040526004361061007f5760003560e01c8063715018a61161004e578063715018a6146101255780638da5cb5b1461013c578063c9215b1e14610167578063f2fde38b1461019257610086565b806306fdde03146100885780630d80fefd146100b3578063368b8772146100f25780633ccfd60b1461010e57610086565b3661008657005b005b34801561009457600080fd5b5061009d6101bb565b6040516100aa91906108a5565b60405180910390f35b3480156100bf57600080fd5b506100da60048036038101906100d59190610911565b610249565b6040516100e9939291906109a2565b60405180910390f35b61010c60048036038101906101079190610b15565b61033f565b005b34801561011a57600080fd5b506101236104f2565b005b34801561013157600080fd5b5061013a6105c4565b005b34801561014857600080fd5b506101516105d8565b60405161015e9190610b5e565b60405180910390f35b34801561017357600080fd5b5061017c610601565b6040516101899190610b88565b60405180910390f35b34801561019e57600080fd5b506101b960048036038101906101b49190610bcf565b610607565b005b600380546101c890610c2b565b80601f01602080910402602001604051908101604052809291908181526020018280546101f490610c2b565b80156102415780601f1061021657610100808354040283529160200191610241565b820191906000526020600020905b81548152906001019060200180831161022457829003601f168201915b505050505081565b6004818154811061025957600080fd5b90600052602060002090600302016000915090508060000160009054906101000a900473ffffffffffffffffffffffffffffffffffffffff16908060010180546102a290610c2b565b80601f01602080910402602001604051908101604052809291908181526020018280546102ce90610c2b565b801561031b5780601f106102f05761010080835404028352916020019161031b565b820191906000526020600020905b8154815290600101906020018083116102fe57829003601f168201915b5050505050908060020160009054906101000a900467ffffffffffffffff16905083565b60025434811115610385576040517f08c379a000000000000000000000000000000000000000000000000000000000815260040161037c90610ca8565b60405180910390fd5b61038d6107d4565b82816020018190525033816000019073ffffffffffffffffffffffffffffffffffffffff16908173ffffffffffffffffffffffffffffffffffffffff1681525050600480549050816040019067ffffffffffffffff16908167ffffffffffffffff1681525050600481908060018154018082558091505060019003906000526020600020906003020160009091909190915060008201518160000160006101000a81548173ffffffffffffffffffffffffffffffffffffffff021916908373ffffffffffffffffffffffffffffffffffffffff160217905550602082015181600101908161047b9190610e74565b5060408201518160020160006101000a81548167ffffffffffffffff021916908367ffffffffffffffff16021790555050507ff64c316b89ab8c190d27fea2b42b91a852a3a222a362e73b7e24df001bcaed9160048054905084336040516104e593929190610f46565b60405180910390a1505050565b6104fa61068a565b3373ffffffffffffffffffffffffffffffffffffffff166108fc60646063476105239190610fb3565b61052d9190611024565b9081150290604051600060405180830381858888f19350505050158015610558573d6000803e3d6000fd5b50600160009054906101000a900473ffffffffffffffffffffffffffffffffffffffff1673ffffffffffffffffffffffffffffffffffffffff166108fc479081150290604051600060405180830381858888f193505050501580156105c1573d6000803e3d6000fd5b50565b6105cc61068a565b6105d66000610708565b565b60008060009054906101000a900473ffffffffffffffffffffffffffffffffffffffff16905090565b60025481565b61060f61068a565b600073ffffffffffffffffffffffffffffffffffffffff168173ffffffffffffffffffffffffffffffffffffffff160361067e576040517f08c379a0000000000000000000000000000000000000000000000000000000008152600401610675906110c7565b60405180910390fd5b61068781610708565b50565b6106926107cc565b73ffffffffffffffffffffffffffffffffffffffff166106b06105d8565b73ffffffffffffffffffffffffffffffffffffffff1614610706576040517f08c379a00000000000000000000000000000000000000000000000000000000081526004016106fd90611133565b60405180910390fd5b565b60008060009054906101000a900473ffffffffffffffffffffffffffffffffffffffff169050816000806101000a81548173ffffffffffffffffffffffffffffffffffffffff021916908373ffffffffffffffffffffffffffffffffffffffff1602179055508173ffffffffffffffffffffffffffffffffffffffff168173ffffffffffffffffffffffffffffffffffffffff167f8be0079c531659141344cd1fd0a4f28419497f9722a3daafe3b4186f6b6457e060405160405180910390a35050565b600033905090565b6040518060600160405280600073ffffffffffffffffffffffffffffffffffffffff16815260200160608152602001600067ffffffffffffffff1681525090565b600081519050919050565b600082825260208201905092915050565b60005b8381101561084f578082015181840152602081019050610834565b60008484015250505050565b6000601f19601f8301169050919050565b600061087782610815565b6108818185610820565b9350610891818560208601610831565b61089a8161085b565b840191505092915050565b600060208201905081810360008301526108bf818461086c565b905092915050565b6000604051905090565b600080fd5b600080fd5b6000819050919050565b6108ee816108db565b81146108f957600080fd5b50565b60008135905061090b816108e5565b92915050565b600060208284031215610927576109266108d1565b5b6000610935848285016108fc565b91505092915050565b600073ffffffffffffffffffffffffffffffffffffffff82169050919050565b60006109698261093e565b9050919050565b6109798161095e565b82525050565b600067ffffffffffffffff82169050919050565b61099c8161097f565b82525050565b60006060820190506109b76000830186610970565b81810360208301526109c9818561086c565b90506109d86040830184610993565b949350505050565b600080fd5b600080fd5b7f4e487b7100000000000000000000000000000000000000000000000000000000600052604160045260246000fd5b610a228261085b565b810181811067ffffffffffffffff82111715610a4157610a406109ea565b5b80604052505050565b6000610a546108c7565b9050610a608282610a19565b919050565b600067ffffffffffffffff821115610a8057610a7f6109ea565b5b610a898261085b565b9050602081019050919050565b82818337600083830152505050565b6000610ab8610ab384610a65565b610a4a565b905082815260208101848484011115610ad457610ad36109e5565b5b610adf848285610a96565b509392505050565b600082601f830112610afc57610afb6109e0565b5b8135610b0c848260208601610aa5565b91505092915050565b600060208284031215610b2b57610b2a6108d1565b5b600082013567ffffffffffffffff811115610b4957610b486108d6565b5b610b5584828501610ae7565b91505092915050565b6000602082019050610b736000830184610970565b92915050565b610b82816108db565b82525050565b6000602082019050610b9d6000830184610b79565b92915050565b610bac8161095e565b8114610bb757600080fd5b50565b600081359050610bc981610ba3565b92915050565b600060208284031215610be557610be46108d1565b5b6000610bf384828501610bba565b91505092915050565b7f4e487b7100000000000000000000000000000000000000000000000000000000600052602260045260246000fd5b60006002820490506001821680610c4357607f821691505b602082108103610c5657610c55610bfc565b5b50919050565b7f4e6f7420656e6f756768742076616c7565000000000000000000000000000000600082015250565b6000610c92601183610820565b9150610c9d82610c5c565b602082019050919050565b60006020820190508181036000830152610cc181610c85565b9050919050565b60008190508160005260206000209050919050565b60006020601f8301049050919050565b600082821b905092915050565b600060088302610d2a7fffffffffffffffffffffffffffffffffffffffffffffffffffffffffffffffff82610ced565b610d348683610ced565b95508019841693508086168417925050509392505050565b6000819050919050565b6000610d71610d6c610d67846108db565b610d4c565b6108db565b9050919050565b6000819050919050565b610d8b83610d56565b610d9f610d9782610d78565b848454610cfa565b825550505050565b600090565b610db4610da7565b610dbf818484610d82565b505050565b5b81811015610de357610dd8600082610dac565b600181019050610dc5565b5050565b601f821115610e2857610df981610cc8565b610e0284610cdd565b81016020851015610e11578190505b610e25610e1d85610cdd565b830182610dc4565b50505b505050565b600082821c905092915050565b6000610e4b60001984600802610e2d565b1980831691505092915050565b6000610e648383610e3a565b9150826002028217905092915050565b610e7d82610815565b67ffffffffffffffff811115610e9657610e956109ea565b5b610ea08254610c2b565b610eab828285610de7565b600060209050601f831160018114610ede5760008415610ecc578287015190505b610ed68582610e58565b865550610f3e565b601f198416610eec86610cc8565b60005b82811015610f1457848901518255600182019150602085019450602081019050610eef565b86831015610f315784890151610f2d601f891682610e3a565b8355505b6001600288020188555050505b505050505050565b6000606082019050610f5b6000830186610993565b8181036020830152610f6d818561086c565b9050610f7c6040830184610970565b949350505050565b7f4e487b7100000000000000000000000000000000000000000000000000000000600052601160045260246000fd5b6000610fbe826108db565b9150610fc9836108db565b9250828202610fd7816108db565b91508282048414831517610fee57610fed610f84565b5b5092915050565b7f4e487b7100000000000000000000000000000000000000000000000000000000600052601260045260246000fd5b600061102f826108db565b915061103a836108db565b92508261104a57611049610ff5565b5b828204905092915050565b7f4f776e61626c653a206e6577206f776e657220697320746865207a65726f206160008201527f6464726573730000000000000000000000000000000000000000000000000000602082015250565b60006110b1602683610820565b91506110bc82611055565b604082019050919050565b600060208201905081810360008301526110e0816110a4565b9050919050565b7f4f776e61626c653a2063616c6c6572206973206e6f7420746865206f776e6572600082015250565b600061111d602083610820565b9150611128826110e7565b602082019050919050565b6000602082019050818103600083015261114c81611110565b905091905056fea264697066735822122098cdc9daa22f307933d159073382e252fc5fc092cf19b985bf9dbb7baea06c6564736f6c63430008110033a264697066735822122065f809a8402db1363af08a9dca41f0ef961715e97c573bd03c08f21786638ddc64736f6c63430008110033",
  "linkReferences": {},
  "deployedLinkReferences": {}
}